:100000000C9434000C9449000C9449000C94490061
:100010000C9449000C9449000C9449000C9449003C
:100020000C9449000C9449000C9449000C9449002C
:100030000C9449000C9449000C9449000C9449001C
:100040000C9449000C9449000C9449000C9449000C
:100050000C9449000C9449000C9449000C944900FC
:100060000C9449000C94490011241FBECFEFD8E036
:10007000DEBFCDBF11E0A0E0B1E0E2E7F1E002C0F9
:1000800005900D92A831B107D9F70E94AB000C94EE
:10009000B7000C94000022E02093C0009093C500AC
:1000A0008093C40088E18093C10086E08093C20001
:1000B00008959091C00095FFFCCF8093C6000895ED
:1000C000CF93DF93EC018991811103C0DF91CF9130
:1000D00008950E945900F7CFCF93C82F613021F4C3
:1000E00080E091E00E946000EC2FE295EF70F0E07C
:1000F000ED5FFE4F80810E945900CF70EC2FF0E041
:10010000ED5FFE4F80810E94590084E191E0CF9124
:100110000C946000CF938091BC0087FFFCCFC0910E
:10012000B900C87F61E08C2F0E946C008C2FCF91AA
:1001300008951092B90088E48093B80084E0809319
:10014000BC00089584EA8093BC000C948A0084E982
:100150008093BC00089580E190E00E944B000E94D3
:1001600099000E94A20084E98093BC00FFCFF8941C
:02017000FFCFBF
:1001720030780030313233343536373839616263A2
:08018200646566000D0A00002F
:00000001FF
