:100000000C9434000C9449000C9449000C94490061
:100010000C9449000C9449000C9449000C9449003C
:100020000C9449000C9449000C9449000C9449002C
:100030000C9449000C9449000C949C000C944900C9
:100040000C9449000C9449000C9449000C9449000C
:100050000C9449000C9449000C9449000C944900FC
:100060000C9449000C94490011241FBECFEFD8E036
:10007000DEBFCDBF11E0A0E0B1E0ECEFF1E002C0E7
:1000800005900D92A230B107D9F70E94F5000C94AB
:10009000FC000C940000CF93DF93CDB7DEB784E46F
:1000A00090E022E0FC01208385E490E024E0FC0164
:1000B000208387E490E02CE7FC0120838EE690E02B
:1000C000FC0120818EE690E02260FC01208380E824
:1000D00090E022E8FC01208381E890E028E1FC0127
:1000E000208388E890E0FC011182108286E890E08D
:1000F0002FEF30E0FC013183208381E890E0FC01A8
:10010000208181E890E02260FC01208384E290E07D
:10011000FC01208184E290E02260FC0120838FE5D5
:1001200090E0FC0120818FE590E02068FC012083B5
:100130000000DF91CF9108951F920F920FB60F929A
:1001400011242F933F938F939F93EF93FF93CF931C
:10015000DF93CDB7DEB7809100018115E1F488E827
:1001600090E0FC0180819181009789F188E890E01E
:10017000FC012081318121503109FC013183208330
:1001800088E890E0FC0180819181009701F581E091
:10019000809300011CC088E890E0FC01808191817F
:1001A0008F3F9105A0F488E890E0FC012081318127
:1001B0002F5F3F4FFC013183208388E890E0FC01F2
:1001C000808191818F3F910511F410920001000010
:1001D000DF91CF91FF91EF919F918F913F912F915F
:1001E0000F900FBE0F901F901895CF93DF93CDB750
:0C01F000DEB70E944B00FFCFF894FFCF59
:0201FC00010000
:00000001FF
