:100000000C9434000C943E000C943E000C943E0082
:100010000C943E000C943E000C943E000C943E0068
:100020000C943E000C943E000C943E000C943E0058
:100030000C943E000C943E000C943E000C943E0048
:100040000C943E000C943E000C943E000C943E0038
:100050000C943E000C943E000C943E000C943E0028
:100060000C943E000C943E0011241FBECFEFD8E04C
:10007000DEBFCDBF0E9440000C94AF000C94000086
:1000800084B1876184B9529854985A9A5C9A60E016
:1000900030E080E071E029B12470232B31F48F5FD0
:1000A000803108F4282F31E006C099274A999395AA
:1000B00097273923282F4FEF89EF90E04150804058
:1000C0009040E1F700C0000089B18071862B51F5A6
:1000D00081E0211101C080E0281B61E04FEF89EF32
:1000E00090E0415080409040E1F700C0000080E087
:1000F00090E0E22FF0E0AF01082E02C05595479541
:100100000A94E2F7417050E082309105D1F08330DB
:100110009105F1F0019771F0452B51F4289881E099
:1001200090E0E9CF88274C99839587276823D6CF1D
:10013000289AF5CF452B19F4299882E0F1CF299A16
:10014000FCCF452B19F42A9883E0EACF2A9AFCCFFA
:10015000452B19F42C98822F9ECF2C9AFCCFF89423
:02016000FFCFCF
:00000001FF
