:100000000C9434000C943E000C943E000C943E0082
:100010000C943E000C943E000C943E000C943E0068
:100020000C943E000C943E000C943E000C943E0058
:100030000C943E000C943E000C943E000C943E0048
:100040000C943E000C943E000C943E000C943E0038
:100050000C943E000C943E000C943E000C943E0028
:100060000C943E000C943E0011241FBECFEFD8E04C
:10007000DEBFCDBF0E9440000C946F000C940000C6
:10008000CF93DF93CDB7DEB784E290E0FC0120810F
:1000900084E290E02260FC01208380E890E022E886
:1000A000FC01208381E890E028E1FC01208388E8BE
:1000B00090E02AE136E0FC013183208386E890E07D
:1000C00029E03DE3FC013183208381E890E0FC01DD
:1000D000208181E890E02560FC012083FFCFF89427
:0200E000FFCF50
:00000001FF
