:100000000C9434000C943E000C943E000C943E0082
:100010000C943E000C943E000C943E000C943E0068
:100020000C943E000C943E000C943E000C943E0058
:100030000C943E000C943E000C943E000C943E0048
:100040000C943E000C943E000C943E000C943E0038
:100050000C943E000C943E000C943E000C943E0028
:100060000C943E000C943E0011241FBECFEFD8E04C
:10007000DEBFCDBF0E9440000C9468000C940000CD
:10008000CF93DF93CDB7DEB784E290E0FC0120810F
:1000900084E290E02260FC01208380E890E020E48C
:1000A000FC01208381E890E028E0FC01208388E8BF
:1000B00090E023E83EE1FC013183208381E890E079
:1000C000FC01208181E890E02560FC012083FFCFC6
:0400D000F894FFCFD2
:00000001FF
