:100000000C9434000C943E000C943E000C943E0082
:100010000C943E000C943E000C943E000C943E0068
:100020000C943E000C943E000C943E000C943E0058
:100030000C943E000C943E000C943E000C943E0048
:100040000C943E000C943E000C943E000C943E0038
:100050000C943E000C943E000C943E000C943E0028
:100060000C943E000C943E0011241FBECFEFD8E04C
:10007000DEBFCDBF0E9440000C94FE020C94000035
:10008000CF93DF93CDB7DEB76E970FB6F894DEBF90
:100090000FBECDBF19821A8284E290E0FC0120815C
:1000A00084E290E02260FC0120838AE290E0FC017F
:1000B00020818AE290E02B7FFC0120838AE290E09D
:1000C000FC0120818AE290E02F7EFC0120838BE2FC
:1000D00090E0FC0120818BE290E02460FC01208311
:1000E0008BE290E0FC0120818BE290E02061FC013A
:1000F000208380E890E022E8FC01208381E890E002
:1001000028E1FC01208388E890E02AE136E0FC0148
:100110003183208386E890E029E03DE3FC013183D0
:10012000208381E890E0FC01208181E890E0256057
:10013000FC01208389E290E0FC018081882F90E01F
:10014000847099270097D9F489818115C1F488E8D2
:1001500090E0FC01808191818430FDE39F0778F479
:1001600081E0898388E890E0FC012081318188E882
:1001700090E0265E394FFC01318320830BC089E279
:1001800090E0FC018081882F90E08470992700978F
:1001900009F0198280E090E0A0EAB1E48B839C83AF
:1001A000AD83BE8320E030E04AE755E46B817C817B
:1001B0008D819E810E946102DC01CB018F83988733
:1001C000A987BA8720E030E040E85FE36F81788557
:1001D00089859A850E94E10181152CF481E090E0E7
:1001E0009C878B8740C020E03FEF4FE757E46F814B
:1001F000788589859A850E945C02813054F120E0DF
:1002000030E040E251E46B817C818D819E810E94CF
:100210006102DC01CB01BC01CD010E94E601DC01E1
:10022000CB019C878B8710C080E991E09E878D87EA
:100230008D859E850197F1F79E878D8700008B85C0
:100240009C8501979C878B878B859C85009761F7A0
:1002500015C06F81788589859A850E94E601DC0149
:10026000CB019C878B878B859C85988B8F878F850F
:1002700098890197F1F7988B8F87000089E290E0C9
:10028000FC018081882F90E0807199270097C9F444
:100290008A818115B1F488E890E0FC018081918128
:1002A000009779F081E08A8388E890E0FC01208162
:1002B000318188E890E02A513640FC013183208367
:1002C0000BC089E290E0FC018081882F90E0807172
:1002D0009927009709F01A8280E090E0A0EAB1E443
:1002E000898B9A8BAB8BBC8B20E030E04AE755E4DE
:1002F00069897A898B899C890E946102DC01CB0122
:100300008D8B9E8BAF8BB88F20E030E040E85FE3B1
:100310006D897E898F89988D0E94E10181152CF469
:1003200081E090E09A8F898F40C020E03FEF4FE757
:1003300057E46D897E898F89988D0E945C02813097
:1003400054F120E030E040E251E469897A898B89F8
:100350009C890E946102DC01CB01BC01CD010E949D
:10036000E601DC01CB019A8F898F10C080E991E012
:100370009C8F8B8F8B8D9C8D0197F1F79C8F8B8F32
:100380000000898D9A8D01979A8F898F898D9A8D1A
:10039000009761F715C06D897E898F89988D0E94BD
:1003A000E601DC01CB019A8F898F898D9A8D9E8F12
:1003B0008D8F8D8D9E8D0197F1F79E8F8D8F000013
:1003C000B9CE0E940F0208F481E008950E943B021A
:1003D00088F09F5798F0B92F9927B751B0F0E1F006
:1003E000660F771F881F991F1AF0BA95C9F714C0B6
:1003F000B13091F00E945502B1E008950C9455027D
:10040000672F782F8827B85F39F0B93FCCF38695EE
:1004100077956795B395D9F786F70C94F602990FFF
:100420000008550FAA0BE0E8FEEF16161706E807BE
:10043000F907C0F012161306E407F50798F0621BDF
:10044000730B840B950B39F40A2661F0232B242BB4
:10045000252B21F408950A2609F4A140A6958FEFD3
:10046000811D811D089557FD9058440F551F59F067
:100470005F3F71F04795880F97FB991F61F09F3F91
:1004800079F087950895121613061406551FF2CFBA
:100490004695F1DF08C0161617061806991FF1CF0A
:1004A00086957105610508940895E894BB27662731
:1004B0007727CB0197F908950E940F0208F48FEF78
:1004C00008950E9474020C94E5020E94D70238F04D
:1004D0000E94DE0220F0952311F00C94CE020C94C1
:1004E000D40211240C9456020E94330270F3959F9B
:1004F000C1F3950F50E0551F629FF001729FBB271B
:10050000F00DB11D639FAA27F00DB11DAA1F649FB6
:100510006627B00DA11D661F829F2227B00DA11D69
:10052000621F739FB00DA11D621F839FA00D611DEF
:10053000221F749F3327A00D611D231F849F600D10
:10054000211D822F762F6A2F11249F5750409AF039
:10055000F1F088234AF0EE0FFF1FBB1F661F771FC5
:10056000881F91505040A9F79E3F510580F00C9490
:10057000CE020C9456025F3FE4F3983ED4F3869586
:1005800077956795B795F795E7959F5FC1F7FE2B30
:10059000880F911D9695879597F9089597F99F670C
:1005A00080E870E060E008959FEF80EC08950024FB
:1005B0000A941616170618060906089500240A94C8
:1005C00012161306140605060895092E0394000C4E
:1005D00011F4882352F0BB0F40F4BF2B11F460FFDD
:1005E00004C06F5F7F4F8F4F9F4F08959095809508
:1005F000709561957F4F8F4F9F4F0895F894FFCF6F
:00000001FF
