:100000000C9434000C9472000C9446000C9446003E
:100010000C9446000C94AE000C9446000C944600E0
:100020000C9446000C9408010C9446000C94460075
:100030000C9446000C9446000C9446000C94460028
:100040000C94EF000C9446000C9446000C9446006F
:100050000C9446000C9446000C9446000C94460008
:100060000C9446000C94460011241FBECFEFD8E03C
:10007000DEBFCDBF21E0A0E0B1E001C01D92A53000
:10008000B207E1F70E9427010C942A010C940000AA
:1000900014BC15BC16BCEEE6F0E080818160808364
:1000A0001092B0001092B1001092B200E0E780818F
:1000B0008160808384B1876184B9529854985A9A38
:1000C0005C9AE9E6808181608083E89AE8E6808135
:1000D00084608083EDE68081806180838FB7806853
:1000E0008FBF08951F921FB61F9211242F934F9315
:1000F0005F938F939F93E8988091030181112BC0A8
:10010000809100018F5F8093000180910001803118
:1001100010F01092000185B1887E85B940910001F0
:100120008091000125B1880F807199274770842B39
:10013000822B85B981E080930301E09A16BC85B5D6
:10014000856085BD9F918F915F914F912F911F90F9
:100150001FBE1F90189510920301EFCF1F921FB67C
:100160001F9211242F934F935F938F939F938091AE
:1001700068008B7F809368008091010181112CC001
:1001800080910001811529F08091000181508093B8
:10019000000185B1887E85B9409100018091000100
:1001A00025B1880F807199274770842B822B85B9E0
:1001B00081E080930101DA9A1092B2008091B1003F
:1001C00085608093B1009F918F915F914F912F91A6
:1001D0001F901FBE1F90189510920101ECCF1F9227
:1001E0001FB61F9211248F93809104018F5F80931B
:1001F000040180910401833030F01092040115BC99
:1002000016BCE09AE89A8F911F901FBE1F90189518
:100210001F921FB61F9211248F93809102018F5F4E
:100220008093020180910201833060F010920201FC
:100230001092B1001092B200DA9A80916800846046
:10024000809368008F911F901FBE1F9018950E9489
:080250004800FFCFF894FFCF36
:00000001FF
