:100000000C9434000C946E000C94A7000C944600E1
:100010000C9446000C9446000C9446000C94460048
:100020000C9446000C94F8000C9446000C94460086
:100030000C9446000C9446000C9446000C94460028
:100040000C94DF000C9446000C9446000C9446007F
:100050000C9446000C9446000C9446000C94460008
:100060000C9446000C94460011241FBECFEFD8E03C
:10007000DEBFCDBF21E0A0E0B1E001C01D92A53000
:10008000B207E1F70E9413010C9414010C940000D4
:1000900014BC15BC16BCEEE6F0E080818160808364
:1000A0001092B0001092B1001092B200E0E780818F
:1000B0008160808384B1876184B9529854985A9A38
:1000C0005C9AE9E6808181608083E89A808184601F
:1000D0008083E99A8FB780688FBF08951F921FB6FB
:1000E0001F9211242F934F935F938F939F93E998BF
:1000F00080910301811128C0809100018F5F80935E
:10010000000180910001803110F0109200014091B7
:1001100000018091000125B1880F807199274770F7
:10012000842B822B85B981E080930301E09A16BC71
:1001300085B5856085BD9F918F915F914F912F917E
:100140001F901FBE1F90189510920301EFCF1F92B2
:100150001FB61F9211242F934F935F938F939F93FA
:10016000E99880910101811127C08091000181509F
:100170008093000180910001409100018091000175
:1001800025B1880F807199274770842B822B85B900
:1001900081E080930101E19A1092B2008091B10058
:1001A00085608093B1009F918F915F914F912F91C6
:1001B0001F901FBE1F90189510920101ECCF1F9247
:1001C0001FB61F9211248F93809104018F5F80933B
:1001D000040180910401833030F01092040115BCB9
:1001E00016BCE09AE89A8F911F901FBE1F90189539
:1001F0001F921FB61F9211248F93809102018F5F6F
:100200008093020180910201833040F0109202013C
:100210001092B1001092B200E19AE99A8F911F906A
:0C0220001FBE1F901895FFCFF894FFCF71
:00000001FF
