:100000000C9434000C949B000C9446000C94460015
:100010000C9446000C9446000C9446000C94460048
:100020000C9446000C9446000C9446000C94460038
:100030000C9446000C9446000C9446000C94460028
:100040000C94EB000C9446000C9446000C94460073
:100050000C9446000C9446000C9446000C94460008
:100060000C9446000C94460011241FBECFEFD8E03C
:10007000DEBFCDBF21E0A0E0B1E001C01D92A23003
:10008000B207E1F70E942B010C9432010C9400009E
:10009000CF93DF93CDB7DEB784E490E0FC0110820C
:1000A00085E490E0FC01108286E490E0FC0110827F
:1000B0008EE690E0FC0120818EE690E02160FC015C
:1000C000208384E290E0FC01208184E290E02160C2
:1000D000FC0120838AE290E0FC0120818AE290E02A
:1000E0002B7FFC0120838BE290E0FC0120818BE2DE
:1000F00090E02460FC01208389E690E0FC012081EF
:1001000089E690E02160FC0120838DE390E0FC0112
:1001100020818DE390E02160FC0120838FE590E059
:10012000FC0120818FE590E02068FC012083000025
:10013000DF91CF9108951F920F920FB60F92112465
:100140002F933F938F939F93EF93FF93CF93DF93DF
:10015000CDB7DEB78DE390E0FC0120818DE390E028
:100160002E7FFC01208380910101811571F485E2CD
:1001700090E0FC01308185E290E021E02327FC0142
:10018000208381E08093010102C0109201018CE381
:1001900090E0FC0120818CE390E02160FC01208351
:1001A00086E490E0FC01108285E490E0FC0120816F
:1001B00085E490E02560FC0120830000DF91CF9171
:1001C000FF91EF919F918F913F912F910F900FBED3
:1001D0000F901F9018951F920F920FB60F92112437
:1001E0002F938F939F93EF93FF93CF93DF93CDB78D
:1001F000DEB7809100018F5F809300018091000144
:100200008330E0F01092000185E490E0FC01108260
:1002100086E490E0FC0110828CE390E0FC012081F8
:100220008CE390E02160FC0120838DE390E0FC01F1
:1002300020818DE390E02160FC0120830000DF91AC
:10024000CF91FF91EF919F918F912F910F900FBEC2
:100250000F901F901895CF93DF93CDB7DEB70E9414
:080260004800FFCFF894FFCF26
:00000001FF
