:100000000C9434000C943E000C943E000C943E0082
:100010000C943E000C943E000C943E000C943E0068
:100020000C943E000C943E000C943E000C943E0058
:100030000C943E000C943E000C943E000C943E0048
:100040000C943E000C943E000C943E000C943E0038
:100050000C943E000C943E000C943E000C943E0028
:100060000C943E000C943E0011241FBECFEFD8E04C
:10007000DEBFCDBF0E94A9000C94B4000C94000018
:1000800084B1876184B9089595B1987E95B980341B
:1000900050F0289A87FF07C0299A803C20F02A9ABE
:1000A0008F3F09F42C9A08958AB188668AB983EF44
:1000B00084BD83E38093B00083E085BD84E08093BA
:1000C000B1000895809588BD609567BD40954093C7
:1000D000B40008958095853558F4482F440F480F93
:1000E000982F990F990F891B60E081500C94620042
:1000F0008A3A60F48555982F990F990F482F491B1C
:100100004150682F660F680F80E0F0CF8A5A982F11
:10011000990F990F682F691B6150982F990F40E034
:10012000890FE4CF8F70806680937C000895EAE7A2
:10013000F0E087EA808310927B0080818064808376
:1001400008950E9497000E94540080E680937C00EE
:1001500008950E94A100C09179008C2F0E946A002E
:0C0160008C2F0E944400F7CFF894FFCFD2
:00000001FF
