:100000000C9434000C943E000C943E000C943E0082
:100010000C943E000C943E000C943E000C943E0068
:100020000C943E000C943E000C943E000C943E0058
:100030000C943E000C943E000C943E000C943E0048
:100040000C943E000C943E000C943E000C943E0038
:100050000C943E000C943E000C943E000C943E0028
:100060000C943E000C943E0011241FBECFEFD8E04C
:10007000DEBFCDBF0E9469000C9485000C94000087
:10008000CF93DF9300D000D0CDB7DEB79C838B83B6
:1000900013C088E793E09A83898305C089819A8198
:1000A00001979A83898389819A810097B9F78B8117
:1000B0009C8101979C838B838B819C81009749F75E
:1000C000000000000F900F900F900F90DF91CF91E4
:1000D0000895CF93DF93CDB7DEB784E290E0FC01C3
:1000E000208184E290E02160FC01208385E290E0A1
:1000F000FC01308185E290E021E02327FC01208390
:0E01000084EF91E00E944000F1CFF894FFCF11
:00000001FF
