:100000000C9434000C9449000C9449000C94490061
:100010000C9449000C9449000C9449000C9449003C
:100020000C9449000C9449000C9449000C9449002C
:100030000C9449000C9449000C9449000C9449001C
:100040000C9449000C9449000C9449000C9449000C
:100050000C9449000C9449000C9449000C944900FC
:100060000C9449000C94490011241FBECFEFD8E036
:10007000DEBFCDBF11E0A0E0B1E0E6EAF1E002C0F2
:1000800005900D92A831B107D9F70E94C3000C94D6
:10009000D1000C94000022E02093C0009093C50092
:1000A0008093C40088E18093C10086E08093C20001
:1000B00008959091C00095FFFCCF8093C6000895ED
:1000C000CF93DF93EC018991811103C0DF91CF9130
:1000D00008950E945900F7CFCF938091BC0087FF0D
:1000E000FCCFC091B900C87F61E08C2F0E94A500B1
:1000F0008C2FCF910895CF93DF93D82F80E78093F3
:10010000BB00C4E8C093BC000E946C00883141F47D
:10011000D093BB00C093BC00DF91CF910C946C00D6
:10012000DF91CF9108951092B90088E48093B800D0
:1001300084E08093BC00089584EA8093BC000C9412
:100140006C0084E98093BC000895CF93C82F613080
:1001500021F480E091E00E946000EC2FE295EF70C6
:10016000F0E0ED5FFE4F80810E945900CF70EC2FD0
:10017000F0E0ED5FFE4F80810E94590084E191E044
:10018000CF910C94600080E190E00E944B000E94AF
:1001900093000E949C008CEA0E947B000E94A100B8
:0601A000F8CFF894FFCF38
:1001A600307800303132333435363738396162636E
:0801B600646566000D0A0000FB
:00000001FF
